{
  "contractName": "Marketplace",
  "abi": [
    {
      "inputs": [],
      "payable": false,
      "stateMutability": "nonpayable",
      "type": "constructor"
    },
    {
      "anonymous": false,
      "inputs": [],
      "name": "ProductCreated",
      "type": "event"
    },
    {
      "anonymous": false,
      "inputs": [],
      "name": "ProductPurchased",
      "type": "event"
    },
    {
      "constant": true,
      "inputs": [],
      "name": "name",
      "outputs": [
        {
          "internalType": "string",
          "name": "",
          "type": "string"
        }
      ],
      "payable": false,
      "stateMutability": "view",
      "type": "function"
    },
    {
      "constant": true,
      "inputs": [],
      "name": "productCount",
      "outputs": [
        {
          "internalType": "uint256",
          "name": "",
          "type": "uint256"
        }
      ],
      "payable": false,
      "stateMutability": "view",
      "type": "function"
    },
    {
      "constant": true,
      "inputs": [
        {
          "internalType": "uint256",
          "name": "",
          "type": "uint256"
        }
      ],
      "name": "products",
      "outputs": [
        {
          "internalType": "uint256",
          "name": "id",
          "type": "uint256"
        },
        {
          "internalType": "string",
          "name": "name",
          "type": "string"
        },
        {
          "internalType": "string",
          "name": "category",
          "type": "string"
        },
        {
          "internalType": "string",
          "name": "lat",
          "type": "string"
        },
        {
          "internalType": "string",
          "name": "lng",
          "type": "string"
        },
        {
          "internalType": "string",
          "name": "owner_address",
          "type": "string"
        },
        {
          "internalType": "uint256",
          "name": "price",
          "type": "uint256"
        },
        {
          "internalType": "address payable",
          "name": "owner",
          "type": "address"
        },
        {
          "internalType": "bool",
          "name": "purchased",
          "type": "bool"
        }
      ],
      "payable": false,
      "stateMutability": "view",
      "type": "function"
    },
    {
      "constant": false,
      "inputs": [
        {
          "internalType": "string",
          "name": "_name",
          "type": "string"
        },
        {
          "internalType": "string",
          "name": "_category",
          "type": "string"
        },
        {
          "internalType": "string",
          "name": "_lat",
          "type": "string"
        },
        {
          "internalType": "string",
          "name": "_lng",
          "type": "string"
        },
        {
          "internalType": "string",
          "name": "_owner_address",
          "type": "string"
        },
        {
          "internalType": "uint256",
          "name": "_price",
          "type": "uint256"
        }
      ],
      "name": "createProduct",
      "outputs": [],
      "payable": false,
      "stateMutability": "nonpayable",
      "type": "function"
    },
    {
      "constant": false,
      "inputs": [
        {
          "internalType": "uint256",
          "name": "_id",
          "type": "uint256"
        }
      ],
      "name": "purchaseProduct",
      "outputs": [],
      "payable": true,
      "stateMutability": "payable",
      "type": "function"
    }
  ],
  "bytecode": "0x608060405260006001553480156200001657600080fd5b506040518060400160405280600581526020017f42617a617200000000000000000000000000000000000000000000000000000081525060009080519060200190620000649291906200006b565b506200011a565b828054600181600116156101000203166002900490600052602060002090601f016020900481019282601f10620000ae57805160ff1916838001178555620000df565b82800160010185558215620000df579182015b82811115620000de578251825591602001919060010190620000c1565b5b509050620000ee9190620000f2565b5090565b6200011791905b8082111562000113576000816000905550600101620000f9565b5090565b90565b611881806200012a6000396000f3fe60806040526004361061004a5760003560e01c806304c85ea71461004f57806306fdde031461037d57806338e76a031461040d5780637acc0b201461043b578063e0f6ef87146106eb575b600080fd5b34801561005b57600080fd5b5061037b600480360360c081101561007257600080fd5b810190808035906020019064010000000081111561008f57600080fd5b8201836020820111156100a157600080fd5b803590602001918460018302840111640100000000831117156100c357600080fd5b91908080601f016020809104026020016040519081016040528093929190818152602001838380828437600081840152601f19601f8201169050808301925050505050505091929192908035906020019064010000000081111561012657600080fd5b82018360208201111561013857600080fd5b8035906020019184600183028401116401000000008311171561015a57600080fd5b91908080601f016020809104026020016040519081016040528093929190818152602001838380828437600081840152601f19601f820116905080830192505050505050509192919290803590602001906401000000008111156101bd57600080fd5b8201836020820111156101cf57600080fd5b803590602001918460018302840111640100000000831117156101f157600080fd5b91908080601f016020809104026020016040519081016040528093929190818152602001838380828437600081840152601f19601f8201169050808301925050505050505091929192908035906020019064010000000081111561025457600080fd5b82018360208201111561026657600080fd5b8035906020019184600183028401116401000000008311171561028857600080fd5b91908080601f016020809104026020016040519081016040528093929190818152602001838380828437600081840152601f19601f820116905080830192505050505050509192919290803590602001906401000000008111156102eb57600080fd5b8201836020820111156102fd57600080fd5b8035906020019184600183028401116401000000008311171561031f57600080fd5b91908080601f016020809104026020016040519081016040528093929190818152602001838380828437600081840152601f19601f82011690508083019250505050505050919291929080359060200190929190505050610716565b005b34801561038957600080fd5b50610392610b3b565b6040518080602001828103825283818151815260200191508051906020019080838360005b838110156103d25780820151818401526020810190506103b7565b50505050905090810190601f1680156103ff5780820380516001836020036101000a031916815260200191505b509250505060405180910390f35b6104396004803603602081101561042357600080fd5b8101908080359060200190929190505050610bd9565b005b34801561044757600080fd5b506104746004803603602081101561045e57600080fd5b81019080803590602001909291905050506113a4565b604051808a815260200180602001806020018060200180602001806020018981526020018873ffffffffffffffffffffffffffffffffffffffff1673ffffffffffffffffffffffffffffffffffffffff1681526020018715151515815260200186810386528e818151815260200191508051906020019080838360005b8381101561050c5780820151818401526020810190506104f1565b50505050905090810190601f1680156105395780820380516001836020036101000a031916815260200191505b5086810385528d818151815260200191508051906020019080838360005b83811015610572578082015181840152602081019050610557565b50505050905090810190601f16801561059f5780820380516001836020036101000a031916815260200191505b5086810384528c818151815260200191508051906020019080838360005b838110156105d85780820151818401526020810190506105bd565b50505050905090810190601f1680156106055780820380516001836020036101000a031916815260200191505b5086810383528b818151815260200191508051906020019080838360005b8381101561063e578082015181840152602081019050610623565b50505050905090810190601f16801561066b5780820380516001836020036101000a031916815260200191505b5086810382528a818151815260200191508051906020019080838360005b838110156106a4578082015181840152602081019050610689565b50505050905090810190601f1680156106d15780820380516001836020036101000a031916815260200191505b509e50505050505050505050505050505060405180910390f35b3480156106f757600080fd5b50610700611717565b6040518082815260200191505060405180910390f35b600086511161078d576040517f08c379a00000000000000000000000000000000000000000000000000000000081526004018080602001828103825260158152602001807f737461746d656e7420697320696e636f7272656374000000000000000000000081525060200191505060405180910390fd5b6000825111610804576040517f08c379a000000000000000000000000000000000000000000000000000000000815260040180806020018281038252600f8152602001807f696e76616c69642061646472657373000000000000000000000000000000000081525060200191505060405180910390fd5b60008451118015610816575060008351115b610888576040517f08c379a000000000000000000000000000000000000000000000000000000000815260040180806020018281038252601b8152602001807f696e76616c69642070726f64756374206c617420616e64206c6e67000000000081525060200191505060405180910390fd5b60008551116108ff576040517f08c379a00000000000000000000000000000000000000000000000000000000081526004018080602001828103825260158152602001807f737461746d656e7420697320696e636f7272656374000000000000000000000081525060200191505060405180910390fd5b60008111610975576040517f08c379a00000000000000000000000000000000000000000000000000000000081526004018080602001828103825260158152602001807f737461746d656e7420697320696e636f7272656374000000000000000000000081525060200191505060405180910390fd5b60016000815480929190600101919050555060405180610120016040528060015481526020018781526020018681526020018581526020018481526020018381526020018281526020013373ffffffffffffffffffffffffffffffffffffffff16815260200160001515815250600260006001548152602001908152602001600020600082015181600001556020820151816001019080519060200190610a1d92919061171d565b506040820151816002019080519060200190610a3a92919061171d565b506060820151816003019080519060200190610a5792919061171d565b506080820151816004019080519060200190610a7492919061171d565b5060a0820151816005019080519060200190610a9192919061171d565b5060c0820151816006015560e08201518160070160006101000a81548173ffffffffffffffffffffffffffffffffffffffff021916908373ffffffffffffffffffffffffffffffffffffffff1602179055506101008201518160070160146101000a81548160ff0219169083151502179055509050507f5e7d07023bfcab0f2a53e5b267f1dcbbd2720b6cf4d026fb7bf061965973485060405160405180910390a1505050505050565b60008054600181600116156101000203166002900480601f016020809104026020016040519081016040528092919081815260200182805460018160011615610100020316600290048015610bd15780601f10610ba657610100808354040283529160200191610bd1565b820191906000526020600020905b815481529060010190602001808311610bb457829003601f168201915b505050505081565b610be161179d565b600260008381526020019081526020016000206040518061012001604052908160008201548152602001600182018054600181600116156101000203166002900480601f016020809104026020016040519081016040528092919081815260200182805460018160011615610100020316600290048015610ca35780601f10610c7857610100808354040283529160200191610ca3565b820191906000526020600020905b815481529060010190602001808311610c8657829003601f168201915b50505050508152602001600282018054600181600116156101000203166002900480601f016020809104026020016040519081016040528092919081815260200182805460018160011615610100020316600290048015610d455780601f10610d1a57610100808354040283529160200191610d45565b820191906000526020600020905b815481529060010190602001808311610d2857829003601f168201915b50505050508152602001600382018054600181600116156101000203166002900480601f016020809104026020016040519081016040528092919081815260200182805460018160011615610100020316600290048015610de75780601f10610dbc57610100808354040283529160200191610de7565b820191906000526020600020905b815481529060010190602001808311610dca57829003601f168201915b50505050508152602001600482018054600181600116156101000203166002900480601f016020809104026020016040519081016040528092919081815260200182805460018160011615610100020316600290048015610e895780601f10610e5e57610100808354040283529160200191610e89565b820191906000526020600020905b815481529060010190602001808311610e6c57829003601f168201915b50505050508152602001600582018054600181600116156101000203166002900480601f016020809104026020016040519081016040528092919081815260200182805460018160011615610100020316600290048015610f2b5780601f10610f0057610100808354040283529160200191610f2b565b820191906000526020600020905b815481529060010190602001808311610f0e57829003601f168201915b50505050508152602001600682015481526020016007820160009054906101000a900473ffffffffffffffffffffffffffffffffffffffff1673ffffffffffffffffffffffffffffffffffffffff1673ffffffffffffffffffffffffffffffffffffffff1681526020016007820160149054906101000a900460ff161515151581525050905060008160e00151905060008260000151118015610fd45750600154826000015111155b611046576040517f08c379a00000000000000000000000000000000000000000000000000000000081526004018080602001828103825260128152602001807f696e76616c69642070726f64756374206964000000000000000000000000000081525060200191505060405180910390fd5b8160c001513410156110c0576040517f08c379a000000000000000000000000000000000000000000000000000000000815260040180806020018281038252601b8152602001807f796f7520646f6e2774206861766520656e6f756768206d6f6e6579000000000081525060200191505060405180910390fd5b81610100015115611139576040517f08c379a000000000000000000000000000000000000000000000000000000000815260040180806020018281038252601c8152602001807f70726f6475637420697320616c7265616479207075726368617365640000000081525060200191505060405180910390fd5b3373ffffffffffffffffffffffffffffffffffffffff168173ffffffffffffffffffffffffffffffffffffffff1614156111be576040517f08c379a00000000000000000000000000000000000000000000000000000000081526004018080602001828103825260268152602001806118276026913960400191505060405180910390fd5b338260e0019073ffffffffffffffffffffffffffffffffffffffff16908173ffffffffffffffffffffffffffffffffffffffff1681525050600182610100019015159081151581525050816002600085815260200190815260200160002060008201518160000155602082015181600101908051906020019061124292919061171d565b50604082015181600201908051906020019061125f92919061171d565b50606082015181600301908051906020019061127c92919061171d565b50608082015181600401908051906020019061129992919061171d565b5060a08201518160050190805190602001906112b692919061171d565b5060c0820151816006015560e08201518160070160006101000a81548173ffffffffffffffffffffffffffffffffffffffff021916908373ffffffffffffffffffffffffffffffffffffffff1602179055506101008201518160070160146101000a81548160ff0219169083151502179055509050508073ffffffffffffffffffffffffffffffffffffffff166108fc349081150290604051600060405180830381858888f19350505050158015611372573d6000803e3d6000fd5b507fb8304a9f667b56e45b9bc682d8fdacac0d2a4e0bd03bede076e8231af3eb835260405160405180910390a1505050565b6002602052806000526040600020600091509050806000015490806001018054600181600116156101000203166002900480601f0160208091040260200160405190810160405280929190818152602001828054600181600116156101000203166002900480156114565780601f1061142b57610100808354040283529160200191611456565b820191906000526020600020905b81548152906001019060200180831161143957829003601f168201915b505050505090806002018054600181600116156101000203166002900480601f0160208091040260200160405190810160405280929190818152602001828054600181600116156101000203166002900480156114f45780601f106114c9576101008083540402835291602001916114f4565b820191906000526020600020905b8154815290600101906020018083116114d757829003601f168201915b505050505090806003018054600181600116156101000203166002900480601f0160208091040260200160405190810160405280929190818152602001828054600181600116156101000203166002900480156115925780601f1061156757610100808354040283529160200191611592565b820191906000526020600020905b81548152906001019060200180831161157557829003601f168201915b505050505090806004018054600181600116156101000203166002900480601f0160208091040260200160405190810160405280929190818152602001828054600181600116156101000203166002900480156116305780601f1061160557610100808354040283529160200191611630565b820191906000526020600020905b81548152906001019060200180831161161357829003601f168201915b505050505090806005018054600181600116156101000203166002900480601f0160208091040260200160405190810160405280929190818152602001828054600181600116156101000203166002900480156116ce5780601f106116a3576101008083540402835291602001916116ce565b820191906000526020600020905b8154815290600101906020018083116116b157829003601f168201915b5050505050908060060154908060070160009054906101000a900473ffffffffffffffffffffffffffffffffffffffff16908060070160149054906101000a900460ff16905089565b60015481565b828054600181600116156101000203166002900490600052602060002090601f016020900481019282601f1061175e57805160ff191683800117855561178c565b8280016001018555821561178c579182015b8281111561178b578251825591602001919060010190611770565b5b5090506117999190611801565b5090565b60405180610120016040528060008152602001606081526020016060815260200160608152602001606081526020016060815260200160008152602001600073ffffffffffffffffffffffffffffffffffffffff1681526020016000151581525090565b61182391905b8082111561181f576000816000905550600101611807565b5090565b9056fe73656c6c65722073686f756c64206e6f742062757920697473206f776e2070726f6475637473a265627a7a7231582054d38bc95c46078e58e872ba343a29e1105068429a471c33e6aa88638864195364736f6c634300050c0032",
  "source": "pragma solidity ^0.5.10;\r\n\r\ncontract Marketplace{\r\n    string public name;\r\n    uint public productCount = 0;\r\n    mapping(uint=> Product) public products;\r\n\r\n    struct Product{\r\n        uint id;\r\n        string name;\r\n        string category;\r\n        string lat;\r\n        string lng;\r\n        string owner_address;\r\n        uint price;\r\n        address payable owner;\r\n        bool purchased;\r\n    }\r\n\r\n    event ProductCreated();\r\n\r\n    event ProductPurchased();\r\n\r\n    constructor() public {\r\n        name = 'Bazar';\r\n    }\r\n\r\n    function createProduct(string memory _name,string memory _category,string memory _lat,string memory _lng,string memory _owner_address, uint _price) public {\r\n        //second parameter in require statement is error...\r\n        require(bytes(_name).length > 0,\"statment is incorrect\");  //require a valid product name\r\n        require(bytes(_owner_address).length > 0,\"invalid address\");  //require a valid sellers address\r\n        require(bytes(_lat).length>0 && bytes(_lng).length>0,\"invalid product lat and lng\");//require a valid sellers address\r\n        require(bytes(_category).length > 0,\"statment is incorrect\");  //require a valid product category\r\n        require(_price > 0,\"statment is incorrect\"); //require a valid price\r\n         //underscore denotes the local varialble\r\n        productCount++;\r\n        products[productCount] = Product(productCount,_name,_category,_lat,_lng,_owner_address,_price, msg.sender,false);\r\n        emit ProductCreated();\r\n    }\r\n\r\n    function purchaseProduct(uint _id) public payable{\r\n        //fetch the product\r\n        Product memory _product = products[_id];\r\n        address payable _seller = _product.owner;\r\n        require(_product.id>0 && _product.id<=productCount,\"invalid product id\");\r\n        require(msg.value>=_product.price,\"you don't have enough money\"); //check there is enough ether in the transaction\r\n        require(!_product.purchased,\"product is already purchased\");\r\n        require(_seller != msg.sender,\"seller should not buy its own products\");\r\n\r\n        _product.owner = msg.sender;\r\n        _product.purchased = true;\r\n        products[_id] = _product;\r\n        address(_seller).transfer(msg.value);\r\n\r\n        emit ProductPurchased();\r\n    }\r\n}",
  "sourcePath": "G:/BCH/m1/Ethereum-Market/src/contracts/Market.sol",
  "compiler": {
    "name": "solc",
    "version": "0.5.12+commit.7709ece9.Emscripten.clang"
  },
  "schemaVersion": "3.0.19",
  "updatedAt": "2019-12-22T22:32:05.710Z",
  "devdoc": {
    "methods": {}
  },
  "userdoc": {
    "methods": {}
  }
}